{
  "contractName": "Encryption",
  "abi": [
    {
      "anonymous": false,
      "inputs": [
        {
          "indexed": true,
          "internalType": "uint256",
          "name": "_keysId",
          "type": "uint256"
        }
      ],
      "name": "keysCreated",
      "type": "event"
    },
    {
      "anonymous": false,
      "inputs": [
        {
          "indexed": true,
          "internalType": "uint256",
          "name": "_userId",
          "type": "uint256"
        }
      ],
      "name": "userCreated",
      "type": "event"
    },
    {
      "inputs": [],
      "name": "keysCount",
      "outputs": [
        {
          "internalType": "uint256",
          "name": "",
          "type": "uint256"
        }
      ],
      "stateMutability": "view",
      "type": "function",
      "constant": true
    },
    {
      "inputs": [
        {
          "internalType": "uint256",
          "name": "",
          "type": "uint256"
        }
      ],
      "name": "keysList",
      "outputs": [
        {
          "internalType": "string",
          "name": "key_id",
          "type": "string"
        },
        {
          "internalType": "string",
          "name": "key_hash",
          "type": "string"
        },
        {
          "internalType": "string",
          "name": "image",
          "type": "string"
        },
        {
          "internalType": "string",
          "name": "sender",
          "type": "string"
        },
        {
          "internalType": "string",
          "name": "receiver",
          "type": "string"
        },
        {
          "internalType": "string",
          "name": "upload_date",
          "type": "string"
        }
      ],
      "stateMutability": "view",
      "type": "function",
      "constant": true
    },
    {
      "inputs": [],
      "name": "userCount",
      "outputs": [
        {
          "internalType": "uint256",
          "name": "",
          "type": "uint256"
        }
      ],
      "stateMutability": "view",
      "type": "function",
      "constant": true
    },
    {
      "inputs": [
        {
          "internalType": "uint256",
          "name": "",
          "type": "uint256"
        }
      ],
      "name": "userList",
      "outputs": [
        {
          "internalType": "string",
          "name": "username",
          "type": "string"
        },
        {
          "internalType": "string",
          "name": "password",
          "type": "string"
        },
        {
          "internalType": "string",
          "name": "phone",
          "type": "string"
        },
        {
          "internalType": "string",
          "name": "email",
          "type": "string"
        },
        {
          "internalType": "string",
          "name": "home_address",
          "type": "string"
        }
      ],
      "stateMutability": "view",
      "type": "function",
      "constant": true
    },
    {
      "inputs": [
        {
          "internalType": "string",
          "name": "uname",
          "type": "string"
        },
        {
          "internalType": "string",
          "name": "pass",
          "type": "string"
        },
        {
          "internalType": "string",
          "name": "phone",
          "type": "string"
        },
        {
          "internalType": "string",
          "name": "email",
          "type": "string"
        },
        {
          "internalType": "string",
          "name": "ha",
          "type": "string"
        }
      ],
      "name": "saveUser",
      "outputs": [],
      "stateMutability": "nonpayable",
      "type": "function"
    },
    {
      "inputs": [],
      "name": "getUserCount",
      "outputs": [
        {
          "internalType": "uint256",
          "name": "",
          "type": "uint256"
        }
      ],
      "stateMutability": "view",
      "type": "function",
      "constant": true
    },
    {
      "inputs": [
        {
          "internalType": "string",
          "name": "kid",
          "type": "string"
        },
        {
          "internalType": "string",
          "name": "kh",
          "type": "string"
        },
        {
          "internalType": "string",
          "name": "img",
          "type": "string"
        },
        {
          "internalType": "string",
          "name": "sen",
          "type": "string"
        },
        {
          "internalType": "string",
          "name": "rec",
          "type": "string"
        },
        {
          "internalType": "string",
          "name": "udate",
          "type": "string"
        }
      ],
      "name": "saveKeys",
      "outputs": [],
      "stateMutability": "nonpayable",
      "type": "function"
    },
    {
      "inputs": [],
      "name": "getKeyCount",
      "outputs": [
        {
          "internalType": "uint256",
          "name": "",
          "type": "uint256"
        }
      ],
      "stateMutability": "view",
      "type": "function",
      "constant": true
    },
    {
      "inputs": [
        {
          "internalType": "uint256",
          "name": "i",
          "type": "uint256"
        }
      ],
      "name": "getUsername",
      "outputs": [
        {
          "internalType": "string",
          "name": "",
          "type": "string"
        }
      ],
      "stateMutability": "view",
      "type": "function",
      "constant": true
    },
    {
      "inputs": [
        {
          "internalType": "uint256",
          "name": "i",
          "type": "uint256"
        }
      ],
      "name": "getPassword",
      "outputs": [
        {
          "internalType": "string",
          "name": "",
          "type": "string"
        }
      ],
      "stateMutability": "view",
      "type": "function",
      "constant": true
    },
    {
      "inputs": [
        {
          "internalType": "uint256",
          "name": "i",
          "type": "uint256"
        }
      ],
      "name": "getPhone",
      "outputs": [
        {
          "internalType": "string",
          "name": "",
          "type": "string"
        }
      ],
      "stateMutability": "view",
      "type": "function",
      "constant": true
    },
    {
      "inputs": [
        {
          "internalType": "uint256",
          "name": "i",
          "type": "uint256"
        }
      ],
      "name": "getEmail",
      "outputs": [
        {
          "internalType": "string",
          "name": "",
          "type": "string"
        }
      ],
      "stateMutability": "view",
      "type": "function",
      "constant": true
    },
    {
      "inputs": [
        {
          "internalType": "uint256",
          "name": "i",
          "type": "uint256"
        }
      ],
      "name": "getAddress",
      "outputs": [
        {
          "internalType": "string",
          "name": "",
          "type": "string"
        }
      ],
      "stateMutability": "view",
      "type": "function",
      "constant": true
    },
    {
      "inputs": [
        {
          "internalType": "uint256",
          "name": "i",
          "type": "uint256"
        }
      ],
      "name": "getKeyid",
      "outputs": [
        {
          "internalType": "string",
          "name": "",
          "type": "string"
        }
      ],
      "stateMutability": "view",
      "type": "function",
      "constant": true
    },
    {
      "inputs": [
        {
          "internalType": "uint256",
          "name": "i",
          "type": "uint256"
        }
      ],
      "name": "getHash",
      "outputs": [
        {
          "internalType": "string",
          "name": "",
          "type": "string"
        }
      ],
      "stateMutability": "view",
      "type": "function",
      "constant": true
    },
    {
      "inputs": [
        {
          "internalType": "uint256",
          "name": "i",
          "type": "uint256"
        }
      ],
      "name": "getImage",
      "outputs": [
        {
          "internalType": "string",
          "name": "",
          "type": "string"
        }
      ],
      "stateMutability": "view",
      "type": "function",
      "constant": true
    },
    {
      "inputs": [
        {
          "internalType": "uint256",
          "name": "i",
          "type": "uint256"
        }
      ],
      "name": "getUploadDate",
      "outputs": [
        {
          "internalType": "string",
          "name": "",
          "type": "string"
        }
      ],
      "stateMutability": "view",
      "type": "function",
      "constant": true
    },
    {
      "inputs": [
        {
          "internalType": "uint256",
          "name": "i",
          "type": "uint256"
        }
      ],
      "name": "getSender",
      "outputs": [
        {
          "internalType": "string",
          "name": "",
          "type": "string"
        }
      ],
      "stateMutability": "view",
      "type": "function",
      "constant": true
    },
    {
      "inputs": [
        {
          "internalType": "uint256",
          "name": "i",
          "type": "uint256"
        }
      ],
      "name": "getReceiver",
      "outputs": [
        {
          "internalType": "string",
          "name": "",
          "type": "string"
        }
      ],
      "stateMutability": "view",
      "type": "function",
      "constant": true
    }
  ],
  "bytecode": "0x608060405260008055600060025534801561001957600080fd5b50613284806100296000396000f3fe608060405234801561001057600080fd5b506004361061013e576000357c010000000000000000000000000000000000000000000000000000000090048063b5cb15f7116100ca578063e9a6f3461161008e578063e9a6f34614610273578063ee1ce84114610286578063f18d18cc1461028e578063f38c6bb6146102a1578063f4d76499146102b457600080fd5b8063b5cb15f714610217578063b93f9b0a1461021f578063b971302a14610232578063cb3023a914610245578063e4f627fe1461026a57600080fd5b806363fe8e661161011157806363fe8e66146101a75780636b2fafa9146101ba5780636b477fed146101cd578063972fe8bc146101e05780639f4216e8146101f357600080fd5b806307973ccf146101435780632607aafa1461015f5780632e7d44b51461017f57806333579b2814610192575b600080fd5b61014c60005481565b6040519081526020015b60405180910390f35b61017261016d366004612dc6565b6102c7565b6040516101569190612e2c565b61017261018d366004612dc6565b610661565b6101a56101a0366004612f02565b6108db565b005b6101726101b5366004612dc6565b610a07565b6101726101c8366004612dc6565b610d9f565b6101726101db366004612dc6565b611139565b6101726101ee366004612dc6565b6114d3565b610206610201366004612dc6565b6117db565b604051610156959493929190612ff7565b60005461014c565b61017261022d366004612dc6565b611ab1565b610172610240366004612dc6565b611db9565b610258610253366004612dc6565b6120c5565b60405161015696959493929190613064565b61014c60025481565b6101a56102813660046130e6565b612429565b60025461014c565b61017261029c366004612dc6565b61252d565b6101726102af366004612dc6565b6127a7565b6101726102c2366004612dc6565b612a21565b60606000600360008481526020019081526020016000206040518060c00160405290816000820180546102f9906131b8565b80601f0160208091040260200160405190810160405280929190818152602001828054610325906131b8565b80156103725780601f1061034757610100808354040283529160200191610372565b820191906000526020600020905b81548152906001019060200180831161035557829003601f168201915b5050505050815260200160018201805461038b906131b8565b80601f01602080910402602001604051908101604052809291908181526020018280546103b7906131b8565b80156104045780601f106103d957610100808354040283529160200191610404565b820191906000526020600020905b8154815290600101906020018083116103e757829003601f168201915b5050505050815260200160028201805461041d906131b8565b80601f0160208091040260200160405190810160405280929190818152602001828054610449906131b8565b80156104965780601f1061046b57610100808354040283529160200191610496565b820191906000526020600020905b81548152906001019060200180831161047957829003601f168201915b505050505081526020016003820180546104af906131b8565b80601f01602080910402602001604051908101604052809291908181526020018280546104db906131b8565b80156105285780601f106104fd57610100808354040283529160200191610528565b820191906000526020600020905b81548152906001019060200180831161050b57829003601f168201915b50505050508152602001600482018054610541906131b8565b80601f016020809104026020016040519081016040528092919081815260200182805461056d906131b8565b80156105ba5780601f1061058f576101008083540402835291602001916105ba565b820191906000526020600020905b81548152906001019060200180831161059d57829003601f168201915b505050505081526020016005820180546105d3906131b8565b80601f01602080910402602001604051908101604052809291908181526020018280546105ff906131b8565b801561064c5780601f106106215761010080835404028352916020019161064c565b820191906000526020600020905b81548152906001019060200180831161062f57829003601f168201915b50505091909252505050604001519392505050565b60606000600160008481526020019081526020016000206040518060a0016040529081600082018054610693906131b8565b80601f01602080910402602001604051908101604052809291908181526020018280546106bf906131b8565b801561070c5780601f106106e15761010080835404028352916020019161070c565b820191906000526020600020905b8154815290600101906020018083116106ef57829003601f168201915b50505050508152602001600182018054610725906131b8565b80601f0160208091040260200160405190810160405280929190818152602001828054610751906131b8565b801561079e5780601f106107735761010080835404028352916020019161079e565b820191906000526020600020905b81548152906001019060200180831161078157829003601f168201915b505050505081526020016002820180546107b7906131b8565b80601f01602080910402602001604051908101604052809291908181526020018280546107e3906131b8565b80156108305780601f1061080557610100808354040283529160200191610830565b820191906000526020600020905b81548152906001019060200180831161081357829003601f168201915b50505050508152602001600382018054610849906131b8565b80601f0160208091040260200160405190810160405280929190818152602001828054610875906131b8565b80156108c25780601f10610897576101008083540402835291602001916108c2565b820191906000526020600020905b8154815290600101906020018083116108a557829003601f168201915b505050505081526020016004820180546105d3906131b8565b6040805160c0810182528781526020808201889052818301879052606082018690526080820185905260a082018490526002546000908152600382529290922081518051929391926109309284920190612d2d565b5060208281015180516109499260018501920190612d2d565b5060408201518051610965916002840191602090910190612d2d565b5060608201518051610981916003840191602090910190612d2d565b506080820151805161099d916004840191602090910190612d2d565b5060a082015180516109b9916005840191602090910190612d2d565b50506002546040519091507f5f92fee1a1768337b2a24abb370e1526bac8b022372c3ea6845559abe7e4de0690600090a2600280549060006109fa8361320c565b9190505550505050505050565b60606000600360008481526020019081526020016000206040518060c0016040529081600082018054610a39906131b8565b80601f0160208091040260200160405190810160405280929190818152602001828054610a65906131b8565b8015610ab25780601f10610a8757610100808354040283529160200191610ab2565b820191906000526020600020905b815481529060010190602001808311610a9557829003601f168201915b50505050508152602001600182018054610acb906131b8565b80601f0160208091040260200160405190810160405280929190818152602001828054610af7906131b8565b8015610b445780601f10610b1957610100808354040283529160200191610b44565b820191906000526020600020905b815481529060010190602001808311610b2757829003601f168201915b50505050508152602001600282018054610b5d906131b8565b80601f0160208091040260200160405190810160405280929190818152602001828054610b89906131b8565b8015610bd65780601f10610bab57610100808354040283529160200191610bd6565b820191906000526020600020905b815481529060010190602001808311610bb957829003601f168201915b50505050508152602001600382018054610bef906131b8565b80601f0160208091040260200160405190810160405280929190818152602001828054610c1b906131b8565b8015610c685780601f10610c3d57610100808354040283529160200191610c68565b820191906000526020600020905b815481529060010190602001808311610c4b57829003601f168201915b50505050508152602001600482018054610c81906131b8565b80601f0160208091040260200160405190810160405280929190818152602001828054610cad906131b8565b8015610cfa5780601f10610ccf57610100808354040283529160200191610cfa565b820191906000526020600020905b815481529060010190602001808311610cdd57829003601f168201915b50505050508152602001600582018054610d13906131b8565b80601f0160208091040260200160405190810160405280929190818152602001828054610d3f906131b8565b8015610d8c5780601f10610d6157610100808354040283529160200191610d8c565b820191906000526020600020905b815481529060010190602001808311610d6f57829003601f168201915b5050509190925250509051949350505050565b60606000600360008481526020019081526020016000206040518060c0016040529081600082018054610dd1906131b8565b80601f0160208091040260200160405190810160405280929190818152602001828054610dfd906131b8565b8015610e4a5780601f10610e1f57610100808354040283529160200191610e4a565b820191906000526020600020905b815481529060010190602001808311610e2d57829003601f168201915b50505050508152602001600182018054610e63906131b8565b80601f0160208091040260200160405190810160405280929190818152602001828054610e8f906131b8565b8015610edc5780601f10610eb157610100808354040283529160200191610edc565b820191906000526020600020905b815481529060010190602001808311610ebf57829003601f168201915b50505050508152602001600282018054610ef5906131b8565b80601f0160208091040260200160405190810160405280929190818152602001828054610f21906131b8565b8015610f6e5780601f10610f4357610100808354040283529160200191610f6e565b820191906000526020600020905b815481529060010190602001808311610f5157829003601f168201915b50505050508152602001600382018054610f87906131b8565b80601f0160208091040260200160405190810160405280929190818152602001828054610fb3906131b8565b80156110005780601f10610fd557610100808354040283529160200191611000565b820191906000526020600020905b815481529060010190602001808311610fe357829003601f168201915b50505050508152602001600482018054611019906131b8565b80601f0160208091040260200160405190810160405280929190818152602001828054611045906131b8565b80156110925780601f1061106757610100808354040283529160200191611092565b820191906000526020600020905b81548152906001019060200180831161107557829003601f168201915b505050505081526020016005820180546110ab906131b8565b80601f01602080910402602001604051908101604052809291908181526020018280546110d7906131b8565b80156111245780601f106110f957610100808354040283529160200191611124565b820191906000526020600020905b81548152906001019060200180831161110757829003601f168201915b50505091909252505050602001519392505050565b60606000600360008481526020019081526020016000206040518060c001604052908160008201805461116b906131b8565b80601f0160208091040260200160405190810160405280929190818152602001828054611197906131b8565b80156111e45780601f106111b9576101008083540402835291602001916111e4565b820191906000526020600020905b8154815290600101906020018083116111c757829003601f168201915b505050505081526020016001820180546111fd906131b8565b80601f0160208091040260200160405190810160405280929190818152602001828054611229906131b8565b80156112765780601f1061124b57610100808354040283529160200191611276565b820191906000526020600020905b81548152906001019060200180831161125957829003601f168201915b5050505050815260200160028201805461128f906131b8565b80601f01602080910402602001604051908101604052809291908181526020018280546112bb906131b8565b80156113085780601f106112dd57610100808354040283529160200191611308565b820191906000526020600020905b8154815290600101906020018083116112eb57829003601f168201915b50505050508152602001600382018054611321906131b8565b80601f016020809104026020016040519081016040528092919081815260200182805461134d906131b8565b801561139a5780601f1061136f5761010080835404028352916020019161139a565b820191906000526020600020905b81548152906001019060200180831161137d57829003601f168201915b505050505081526020016004820180546113b3906131b8565b80601f01602080910402602001604051908101604052809291908181526020018280546113df906131b8565b801561142c5780601f106114015761010080835404028352916020019161142c565b820191906000526020600020905b81548152906001019060200180831161140f57829003601f168201915b50505050508152602001600582018054611445906131b8565b80601f0160208091040260200160405190810160405280929190818152602001828054611471906131b8565b80156114be5780601f10611493576101008083540402835291602001916114be565b820191906000526020600020905b8154815290600101906020018083116114a157829003601f168201915b5050509190925250505060a001519392505050565b60606000600160008481526020019081526020016000206040518060a0016040529081600082018054611505906131b8565b80601f0160208091040260200160405190810160405280929190818152602001828054611531906131b8565b801561157e5780601f106115535761010080835404028352916020019161157e565b820191906000526020600020905b81548152906001019060200180831161156157829003601f168201915b50505050508152602001600182018054611597906131b8565b80601f01602080910402602001604051908101604052809291908181526020018280546115c3906131b8565b80156116105780601f106115e557610100808354040283529160200191611610565b820191906000526020600020905b8154815290600101906020018083116115f357829003601f168201915b50505050508152602001600282018054611629906131b8565b80601f0160208091040260200160405190810160405280929190818152602001828054611655906131b8565b80156116a25780601f10611677576101008083540402835291602001916116a2565b820191906000526020600020905b81548152906001019060200180831161168557829003601f168201915b505050505081526020016003820180546116bb906131b8565b80601f01602080910402602001604051908101604052809291908181526020018280546116e7906131b8565b80156117345780601f1061170957610100808354040283529160200191611734565b820191906000526020600020905b81548152906001019060200180831161171757829003601f168201915b5050505050815260200160048201805461174d906131b8565b80601f0160208091040260200160405190810160405280929190818152602001828054611779906131b8565b80156117c65780601f1061179b576101008083540402835291602001916117c6565b820191906000526020600020905b8154815290600101906020018083116117a957829003601f168201915b50505091909252505050606001519392505050565b6001602052600090815260409020805481906117f6906131b8565b80601f0160208091040260200160405190810160405280929190818152602001828054611822906131b8565b801561186f5780601f106118445761010080835404028352916020019161186f565b820191906000526020600020905b81548152906001019060200180831161185257829003601f168201915b505050505090806001018054611884906131b8565b80601f01602080910402602001604051908101604052809291908181526020018280546118b0906131b8565b80156118fd5780601f106118d2576101008083540402835291602001916118fd565b820191906000526020600020905b8154815290600101906020018083116118e057829003601f168201915b505050505090806002018054611912906131b8565b80601f016020809104026020016040519081016040528092919081815260200182805461193e906131b8565b801561198b5780601f106119605761010080835404028352916020019161198b565b820191906000526020600020905b81548152906001019060200180831161196e57829003601f168201915b5050505050908060030180546119a0906131b8565b80601f01602080910402602001604051908101604052809291908181526020018280546119cc906131b8565b8015611a195780601f106119ee57610100808354040283529160200191611a19565b820191906000526020600020905b8154815290600101906020018083116119fc57829003601f168201915b505050505090806004018054611a2e906131b8565b80601f0160208091040260200160405190810160405280929190818152602001828054611a5a906131b8565b8015611aa75780601f10611a7c57610100808354040283529160200191611aa7565b820191906000526020600020905b815481529060010190602001808311611a8a57829003601f168201915b5050505050905085565b60606000600160008481526020019081526020016000206040518060a0016040529081600082018054611ae3906131b8565b80601f0160208091040260200160405190810160405280929190818152602001828054611b0f906131b8565b8015611b5c5780601f10611b3157610100808354040283529160200191611b5c565b820191906000526020600020905b815481529060010190602001808311611b3f57829003601f168201915b50505050508152602001600182018054611b75906131b8565b80601f0160208091040260200160405190810160405280929190818152602001828054611ba1906131b8565b8015611bee5780601f10611bc357610100808354040283529160200191611bee565b820191906000526020600020905b815481529060010190602001808311611bd157829003601f168201915b50505050508152602001600282018054611c07906131b8565b80601f0160208091040260200160405190810160405280929190818152602001828054611c33906131b8565b8015611c805780601f10611c5557610100808354040283529160200191611c80565b820191906000526020600020905b815481529060010190602001808311611c6357829003601f168201915b50505050508152602001600382018054611c99906131b8565b80601f0160208091040260200160405190810160405280929190818152602001828054611cc5906131b8565b8015611d125780601f10611ce757610100808354040283529160200191611d12565b820191906000526020600020905b815481529060010190602001808311611cf557829003601f168201915b50505050508152602001600482018054611d2b906131b8565b80601f0160208091040260200160405190810160405280929190818152602001828054611d57906131b8565b8015611da45780601f10611d7957610100808354040283529160200191611da4565b820191906000526020600020905b815481529060010190602001808311611d8757829003601f168201915b50505091909252505050608001519392505050565b60606000600360008481526020019081526020016000206040518060c0016040529081600082018054611deb906131b8565b80601f0160208091040260200160405190810160405280929190818152602001828054611e17906131b8565b8015611e645780601f10611e3957610100808354040283529160200191611e64565b820191906000526020600020905b815481529060010190602001808311611e4757829003601f168201915b50505050508152602001600182018054611e7d906131b8565b80601f0160208091040260200160405190810160405280929190818152602001828054611ea9906131b8565b8015611ef65780601f10611ecb57610100808354040283529160200191611ef6565b820191906000526020600020905b815481529060010190602001808311611ed957829003601f168201915b50505050508152602001600282018054611f0f906131b8565b80601f0160208091040260200160405190810160405280929190818152602001828054611f3b906131b8565b8015611f885780601f10611f5d57610100808354040283529160200191611f88565b820191906000526020600020905b815481529060010190602001808311611f6b57829003601f168201915b50505050508152602001600382018054611fa1906131b8565b80601f0160208091040260200160405190810160405280929190818152602001828054611fcd906131b8565b801561201a5780601f10611fef5761010080835404028352916020019161201a565b820191906000526020600020905b815481529060010190602001808311611ffd57829003601f168201915b50505050508152602001600482018054612033906131b8565b80601f016020809104026020016040519081016040528092919081815260200182805461205f906131b8565b80156120ac5780601f10612081576101008083540402835291602001916120ac565b820191906000526020600020905b81548152906001019060200180831161208f57829003601f168201915b5050505050815260200160058201805461174d906131b8565b6003602052600090815260409020805481906120e0906131b8565b80601f016020809104026020016040519081016040528092919081815260200182805461210c906131b8565b80156121595780601f1061212e57610100808354040283529160200191612159565b820191906000526020600020905b81548152906001019060200180831161213c57829003601f168201915b50505050509080600101805461216e906131b8565b80601f016020809104026020016040519081016040528092919081815260200182805461219a906131b8565b80156121e75780601f106121bc576101008083540402835291602001916121e7565b820191906000526020600020905b8154815290600101906020018083116121ca57829003601f168201915b5050505050908060020180546121fc906131b8565b80601f0160208091040260200160405190810160405280929190818152602001828054612228906131b8565b80156122755780601f1061224a57610100808354040283529160200191612275565b820191906000526020600020905b81548152906001019060200180831161225857829003601f168201915b50505050509080600301805461228a906131b8565b80601f01602080910402602001604051908101604052809291908181526020018280546122b6906131b8565b80156123035780601f106122d857610100808354040283529160200191612303565b820191906000526020600020905b8154815290600101906020018083116122e657829003601f168201915b505050505090806004018054612318906131b8565b80601f0160208091040260200160405190810160405280929190818152602001828054612344906131b8565b80156123915780601f1061236657610100808354040283529160200191612391565b820191906000526020600020905b81548152906001019060200180831161237457829003601f168201915b5050505050908060050180546123a6906131b8565b80601f01602080910402602001604051908101604052809291908181526020018280546123d2906131b8565b801561241f5780601f106123f45761010080835404028352916020019161241f565b820191906000526020600020905b81548152906001019060200180831161240257829003601f168201915b5050505050905086565b6040805160a08101825286815260208082018790528183018690526060820185905260808201849052600080548152600182529290922081518051929391926124759284920190612d2d565b50602082810151805161248e9260018501920190612d2d565b50604082015180516124aa916002840191602090910190612d2d565b50606082015180516124c6916003840191602090910190612d2d565b50608082015180516124e2916004840191602090910190612d2d565b5050600080546040519092507f1ed675bb725b3a8b0434b9ee956fe05e4c0e79f9dc67c3f1a717a5bb1fd88fd39190a26000805490806125218361320c565b91905055505050505050565b60606000600160008481526020019081526020016000206040518060a001604052908160008201805461255f906131b8565b80601f016020809104026020016040519081016040528092919081815260200182805461258b906131b8565b80156125d85780601f106125ad576101008083540402835291602001916125d8565b820191906000526020600020905b8154815290600101906020018083116125bb57829003601f168201915b505050505081526020016001820180546125f1906131b8565b80601f016020809104026020016040519081016040528092919081815260200182805461261d906131b8565b801561266a5780601f1061263f5761010080835404028352916020019161266a565b820191906000526020600020905b81548152906001019060200180831161264d57829003601f168201915b50505050508152602001600282018054612683906131b8565b80601f01602080910402602001604051908101604052809291908181526020018280546126af906131b8565b80156126fc5780601f106126d1576101008083540402835291602001916126fc565b820191906000526020600020905b8154815290600101906020018083116126df57829003601f168201915b50505050508152602001600382018054612715906131b8565b80601f0160208091040260200160405190810160405280929190818152602001828054612741906131b8565b801561278e5780601f106127635761010080835404028352916020019161278e565b820191906000526020600020905b81548152906001019060200180831161277157829003601f168201915b50505050508152602001600482018054610d13906131b8565b60606000600160008481526020019081526020016000206040518060a00160405290816000820180546127d9906131b8565b80601f0160208091040260200160405190810160405280929190818152602001828054612805906131b8565b80156128525780601f1061282757610100808354040283529160200191612852565b820191906000526020600020905b81548152906001019060200180831161283557829003601f168201915b5050505050815260200160018201805461286b906131b8565b80601f0160208091040260200160405190810160405280929190818152602001828054612897906131b8565b80156128e45780601f106128b9576101008083540402835291602001916128e4565b820191906000526020600020905b8154815290600101906020018083116128c757829003601f168201915b505050505081526020016002820180546128fd906131b8565b80601f0160208091040260200160405190810160405280929190818152602001828054612929906131b8565b80156129765780601f1061294b57610100808354040283529160200191612976565b820191906000526020600020905b81548152906001019060200180831161295957829003601f168201915b5050505050815260200160038201805461298f906131b8565b80601f01602080910402602001604051908101604052809291908181526020018280546129bb906131b8565b8015612a085780601f106129dd57610100808354040283529160200191612a08565b820191906000526020600020905b8154815290600101906020018083116129eb57829003601f168201915b505050505081526020016004820180546110ab906131b8565b60606000600360008481526020019081526020016000206040518060c0016040529081600082018054612a53906131b8565b80601f0160208091040260200160405190810160405280929190818152602001828054612a7f906131b8565b8015612acc5780601f10612aa157610100808354040283529160200191612acc565b820191906000526020600020905b815481529060010190602001808311612aaf57829003601f168201915b50505050508152602001600182018054612ae5906131b8565b80601f0160208091040260200160405190810160405280929190818152602001828054612b11906131b8565b8015612b5e5780601f10612b3357610100808354040283529160200191612b5e565b820191906000526020600020905b815481529060010190602001808311612b4157829003601f168201915b50505050508152602001600282018054612b77906131b8565b80601f0160208091040260200160405190810160405280929190818152602001828054612ba3906131b8565b8015612bf05780601f10612bc557610100808354040283529160200191612bf0565b820191906000526020600020905b815481529060010190602001808311612bd357829003601f168201915b50505050508152602001600382018054612c09906131b8565b80601f0160208091040260200160405190810160405280929190818152602001828054612c35906131b8565b8015612c825780601f10612c5757610100808354040283529160200191612c82565b820191906000526020600020905b815481529060010190602001808311612c6557829003601f168201915b50505050508152602001600482018054612c9b906131b8565b80601f0160208091040260200160405190810160405280929190818152602001828054612cc7906131b8565b8015612d145780601f10612ce957610100808354040283529160200191612d14565b820191906000526020600020905b815481529060010190602001808311612cf757829003601f168201915b50505050508152602001600582018054611d2b906131b8565b828054612d39906131b8565b90600052602060002090601f016020900481019282612d5b5760008555612da1565b82601f10612d7457805160ff1916838001178555612da1565b82800160010185558215612da1579182015b82811115612da1578251825591602001919060010190612d86565b50612dad929150612db1565b5090565b5b80821115612dad5760008155600101612db2565b600060208284031215612dd857600080fd5b5035919050565b6000815180845260005b81811015612e0557602081850181015186830182015201612de9565b81811115612e17576000602083870101525b50601f01601f19169290920160200192915050565b602081526000612e3f6020830184612ddf565b9392505050565b7f4e487b7100000000000000000000000000000000000000000000000000000000600052604160045260246000fd5b600082601f830112612e8657600080fd5b813567ffffffffffffffff80821115612ea157612ea1612e46565b604051601f8301601f19908116603f01168101908282118183101715612ec957612ec9612e46565b81604052838152866020858801011115612ee257600080fd5b836020870160208301376000602085830101528094505050505092915050565b60008060008060008060c08789031215612f1b57600080fd5b863567ffffffffffffffff80821115612f3357600080fd5b612f3f8a838b01612e75565b97506020890135915080821115612f5557600080fd5b612f618a838b01612e75565b96506040890135915080821115612f7757600080fd5b612f838a838b01612e75565b95506060890135915080821115612f9957600080fd5b612fa58a838b01612e75565b94506080890135915080821115612fbb57600080fd5b612fc78a838b01612e75565b935060a0890135915080821115612fdd57600080fd5b50612fea89828a01612e75565b9150509295509295509295565b60a08152600061300a60a0830188612ddf565b828103602084015261301c8188612ddf565b905082810360408401526130308187612ddf565b905082810360608401526130448186612ddf565b905082810360808401526130588185612ddf565b98975050505050505050565b60c08152600061307760c0830189612ddf565b82810360208401526130898189612ddf565b9050828103604084015261309d8188612ddf565b905082810360608401526130b18187612ddf565b905082810360808401526130c58186612ddf565b905082810360a08401526130d98185612ddf565b9998505050505050505050565b600080600080600060a086880312156130fe57600080fd5b853567ffffffffffffffff8082111561311657600080fd5b61312289838a01612e75565b9650602088013591508082111561313857600080fd5b61314489838a01612e75565b9550604088013591508082111561315a57600080fd5b61316689838a01612e75565b9450606088013591508082111561317c57600080fd5b61318889838a01612e75565b9350608088013591508082111561319e57600080fd5b506131ab88828901612e75565b9150509295509295909350565b6002810460018216806131cc57607f821691505b60208210811415613206577f4e487b7100000000000000000000000000000000000000000000000000000000600052602260045260246000fd5b50919050565b6000600019821415613247577f4e487b7100000000000000000000000000000000000000000000000000000000600052601160045260246000fd5b506001019056fea26469706673582212206640e10eedca7161823a44e4835dd83f3e7be14ae07709c3d8ec56f17a7fde6d64736f6c634300080b0033",
  "immutableReferences": {},
  "source": "pragma solidity >= 0.8.11 <= 0.8.11;\r\npragma experimental ABIEncoderV2;\r\n//Encryption solidity code\r\ncontract Encryption {\r\n\r\n    uint public userCount = 0; \r\n    mapping(uint => user) public userList; \r\n     struct user\r\n     {\r\n       string username;\r\n       string password;\r\n       string phone;\r\n       string email;\r\n       string home_address;\r\n     }\r\n \r\n   // events \r\n   event userCreated(uint indexed _userId);\r\n   \r\n   //function  to save user details to Blockchain\r\n   function saveUser(string memory uname, string memory pass, string memory phone, string memory email, string memory ha) public {\r\n      userList[userCount] = user(uname, pass, phone, email, ha);\r\n      emit userCreated(userCount);\r\n      userCount++;\r\n    }\r\n\r\n     //get user count\r\n    function getUserCount()  public view returns (uint) {\r\n          return  userCount;\r\n    }\r\n\r\n    uint public keysCount = 0; \r\n    mapping(uint => keys) public keysList; \r\n     struct keys\r\n     {\r\n       string key_id;\r\n       string key_hash;\r\n       string image;\r\n       string sender;\r\n       string receiver;\r\n       string upload_date;       \r\n     }\r\n \r\n   // events \r\n   event keysCreated(uint indexed _keysId);\r\n   \r\n   //function  to save keysdetails to Blockchain\r\n   function saveKeys(string memory kid, string memory kh, string memory img, string memory sen, string memory rec,string memory udate) public {\r\n      keysList[keysCount] = keys(kid,  kh, img, sen, rec, udate);\r\n      emit keysCreated(keysCount);\r\n      keysCount++;\r\n    }\r\n\r\n    //get keys count\r\n    function getKeyCount()  public view returns (uint) {\r\n          return  keysCount;\r\n    }\r\n\r\n    function getUsername(uint i) public view returns (string memory) {\r\n        user memory doc = userList[i];\r\n\treturn doc.username;\r\n    }\r\n\r\n    function getPassword(uint i) public view returns (string memory) {\r\n        user memory doc = userList[i];\r\n\treturn doc.password;\r\n    }\r\n\r\n    function getPhone(uint i) public view returns (string memory) {\r\n        user memory doc = userList[i];\r\n\treturn doc.phone;\r\n    }    \r\n\r\n    function getEmail(uint i) public view returns (string memory) {\r\n        user memory doc = userList[i];\r\n\treturn doc.email;\r\n    }\r\n\r\n    function getAddress(uint i) public view returns (string memory) {\r\n        user memory doc = userList[i];\r\n\treturn doc.home_address;\r\n    }\r\n\r\n    function getKeyid(uint i) public view returns (string memory) {\r\n        keys memory doc = keysList[i];\r\n\treturn doc.key_id;\r\n    }\r\n\r\n    function getHash(uint i) public view returns (string memory) {\r\n        keys memory doc = keysList[i];\r\n\treturn doc.key_hash;\r\n    }\r\n\r\n    function getImage(uint i) public view returns (string memory) {\r\n        keys memory doc = keysList[i];\r\n\treturn doc.image;\r\n    }\r\n\r\n    function getUploadDate(uint i) public view returns (string memory) {\r\n        keys memory doc = keysList[i];\r\n\treturn doc.upload_date;\r\n    }\r\n\r\n    function getSender(uint i) public view returns (string memory) {\r\n        keys memory doc = keysList[i];\r\n\treturn doc.sender;\r\n    }\r\n\r\n    function getReceiver(uint i) public view returns (string memory) {\r\n        keys memory doc = keysList[i];\r\n\treturn doc.receiver;\r\n    }\r\n        \r\n}",
  "sourcePath": "C:\\Users\\Admin\\Desktop\\Blockchain\\hello-eth\\node_modules\\.bin\\contracts\\Encryption.sol",
  "compiler": {
    "name": "solc",
    "version": "0.8.11+commit.d7f03943.Emscripten.clang"
  },
  "schemaVersion": "3.4.4",
  "updatedAt": "2024-11-20T12:27:21.336Z",
  "networkType": "ethereum",
  "devdoc": {
    "kind": "dev",
    "methods": {},
    "version": 1
  },
  "userdoc": {
    "kind": "user",
    "methods": {},
    "version": 1
  }
}